{
  "contractName": "MetaObituary",
  "abi": [
    {
      "inputs": [],
      "stateMutability": "nonpayable",
      "type": "constructor"
    },
    {
      "anonymous": false,
      "inputs": [
        {
          "indexed": true,
          "internalType": "address",
          "name": "owner",
          "type": "address"
        },
        {
          "indexed": true,
          "internalType": "address",
          "name": "approved",
          "type": "address"
        },
        {
          "indexed": true,
          "internalType": "uint256",
          "name": "tokenId",
          "type": "uint256"
        }
      ],
      "name": "Approval",
      "type": "event"
    },
    {
      "anonymous": false,
      "inputs": [
        {
          "indexed": true,
          "internalType": "address",
          "name": "owner",
          "type": "address"
        },
        {
          "indexed": true,
          "internalType": "address",
          "name": "operator",
          "type": "address"
        },
        {
          "indexed": false,
          "internalType": "bool",
          "name": "approved",
          "type": "bool"
        }
      ],
      "name": "ApprovalForAll",
      "type": "event"
    },
    {
      "anonymous": false,
      "inputs": [
        {
          "indexed": true,
          "internalType": "address",
          "name": "previousOwner",
          "type": "address"
        },
        {
          "indexed": true,
          "internalType": "address",
          "name": "newOwner",
          "type": "address"
        }
      ],
      "name": "OwnershipTransferred",
      "type": "event"
    },
    {
      "anonymous": false,
      "inputs": [
        {
          "indexed": true,
          "internalType": "address",
          "name": "from",
          "type": "address"
        },
        {
          "indexed": true,
          "internalType": "address",
          "name": "to",
          "type": "address"
        },
        {
          "indexed": true,
          "internalType": "uint256",
          "name": "tokenId",
          "type": "uint256"
        }
      ],
      "name": "Transfer",
      "type": "event"
    },
    {
      "inputs": [
        {
          "internalType": "address",
          "name": "to",
          "type": "address"
        },
        {
          "internalType": "uint256",
          "name": "tokenId",
          "type": "uint256"
        }
      ],
      "name": "approve",
      "outputs": [],
      "stateMutability": "nonpayable",
      "type": "function"
    },
    {
      "inputs": [
        {
          "internalType": "address",
          "name": "owner",
          "type": "address"
        }
      ],
      "name": "balanceOf",
      "outputs": [
        {
          "internalType": "uint256",
          "name": "",
          "type": "uint256"
        }
      ],
      "stateMutability": "view",
      "type": "function",
      "constant": true
    },
    {
      "inputs": [],
      "name": "baseURI",
      "outputs": [
        {
          "internalType": "string",
          "name": "",
          "type": "string"
        }
      ],
      "stateMutability": "view",
      "type": "function",
      "constant": true
    },
    {
      "inputs": [
        {
          "internalType": "uint256",
          "name": "tokenId",
          "type": "uint256"
        }
      ],
      "name": "getApproved",
      "outputs": [
        {
          "internalType": "address",
          "name": "",
          "type": "address"
        }
      ],
      "stateMutability": "view",
      "type": "function",
      "constant": true
    },
    {
      "inputs": [
        {
          "internalType": "address",
          "name": "owner",
          "type": "address"
        },
        {
          "internalType": "address",
          "name": "operator",
          "type": "address"
        }
      ],
      "name": "isApprovedForAll",
      "outputs": [
        {
          "internalType": "bool",
          "name": "",
          "type": "bool"
        }
      ],
      "stateMutability": "view",
      "type": "function",
      "constant": true
    },
    {
      "inputs": [],
      "name": "minted",
      "outputs": [
        {
          "internalType": "uint256",
          "name": "",
          "type": "uint256"
        }
      ],
      "stateMutability": "view",
      "type": "function",
      "constant": true
    },
    {
      "inputs": [],
      "name": "name",
      "outputs": [
        {
          "internalType": "string",
          "name": "",
          "type": "string"
        }
      ],
      "stateMutability": "view",
      "type": "function",
      "constant": true
    },
    {
      "inputs": [],
      "name": "owner",
      "outputs": [
        {
          "internalType": "address",
          "name": "",
          "type": "address"
        }
      ],
      "stateMutability": "view",
      "type": "function",
      "constant": true
    },
    {
      "inputs": [
        {
          "internalType": "uint256",
          "name": "tokenId",
          "type": "uint256"
        }
      ],
      "name": "ownerOf",
      "outputs": [
        {
          "internalType": "address",
          "name": "",
          "type": "address"
        }
      ],
      "stateMutability": "view",
      "type": "function",
      "constant": true
    },
    {
      "inputs": [],
      "name": "publicPrice",
      "outputs": [
        {
          "internalType": "uint256",
          "name": "",
          "type": "uint256"
        }
      ],
      "stateMutability": "view",
      "type": "function",
      "constant": true
    },
    {
      "inputs": [],
      "name": "renounceOwnership",
      "outputs": [],
      "stateMutability": "nonpayable",
      "type": "function"
    },
    {
      "inputs": [
        {
          "internalType": "address",
          "name": "from",
          "type": "address"
        },
        {
          "internalType": "address",
          "name": "to",
          "type": "address"
        },
        {
          "internalType": "uint256",
          "name": "tokenId",
          "type": "uint256"
        }
      ],
      "name": "safeTransferFrom",
      "outputs": [],
      "stateMutability": "nonpayable",
      "type": "function"
    },
    {
      "inputs": [
        {
          "internalType": "address",
          "name": "from",
          "type": "address"
        },
        {
          "internalType": "address",
          "name": "to",
          "type": "address"
        },
        {
          "internalType": "uint256",
          "name": "tokenId",
          "type": "uint256"
        },
        {
          "internalType": "bytes",
          "name": "_data",
          "type": "bytes"
        }
      ],
      "name": "safeTransferFrom",
      "outputs": [],
      "stateMutability": "nonpayable",
      "type": "function"
    },
    {
      "inputs": [
        {
          "internalType": "address",
          "name": "operator",
          "type": "address"
        },
        {
          "internalType": "bool",
          "name": "approved",
          "type": "bool"
        }
      ],
      "name": "setApprovalForAll",
      "outputs": [],
      "stateMutability": "nonpayable",
      "type": "function"
    },
    {
      "inputs": [
        {
          "internalType": "bytes4",
          "name": "interfaceId",
          "type": "bytes4"
        }
      ],
      "name": "supportsInterface",
      "outputs": [
        {
          "internalType": "bool",
          "name": "",
          "type": "bool"
        }
      ],
      "stateMutability": "view",
      "type": "function",
      "constant": true
    },
    {
      "inputs": [],
      "name": "symbol",
      "outputs": [
        {
          "internalType": "string",
          "name": "",
          "type": "string"
        }
      ],
      "stateMutability": "view",
      "type": "function",
      "constant": true
    },
    {
      "inputs": [
        {
          "internalType": "uint256",
          "name": "index",
          "type": "uint256"
        }
      ],
      "name": "tokenByIndex",
      "outputs": [
        {
          "internalType": "uint256",
          "name": "",
          "type": "uint256"
        }
      ],
      "stateMutability": "view",
      "type": "function",
      "constant": true
    },
    {
      "inputs": [
        {
          "internalType": "address",
          "name": "owner",
          "type": "address"
        },
        {
          "internalType": "uint256",
          "name": "index",
          "type": "uint256"
        }
      ],
      "name": "tokenOfOwnerByIndex",
      "outputs": [
        {
          "internalType": "uint256",
          "name": "",
          "type": "uint256"
        }
      ],
      "stateMutability": "view",
      "type": "function",
      "constant": true
    },
    {
      "inputs": [
        {
          "internalType": "uint256",
          "name": "tokenId",
          "type": "uint256"
        }
      ],
      "name": "tokenURI",
      "outputs": [
        {
          "internalType": "string",
          "name": "",
          "type": "string"
        }
      ],
      "stateMutability": "view",
      "type": "function",
      "constant": true
    },
    {
      "inputs": [],
      "name": "totalSupply",
      "outputs": [
        {
          "internalType": "uint256",
          "name": "",
          "type": "uint256"
        }
      ],
      "stateMutability": "view",
      "type": "function",
      "constant": true
    },
    {
      "inputs": [
        {
          "internalType": "address",
          "name": "from",
          "type": "address"
        },
        {
          "internalType": "address",
          "name": "to",
          "type": "address"
        },
        {
          "internalType": "uint256",
          "name": "tokenId",
          "type": "uint256"
        }
      ],
      "name": "transferFrom",
      "outputs": [],
      "stateMutability": "nonpayable",
      "type": "function"
    },
    {
      "inputs": [
        {
          "internalType": "address",
          "name": "newOwner",
          "type": "address"
        }
      ],
      "name": "transferOwnership",
      "outputs": [],
      "stateMutability": "nonpayable",
      "type": "function"
    },
    {
      "inputs": [
        {
          "internalType": "string",
          "name": "tokenURI",
          "type": "string"
        }
      ],
      "name": "mint",
      "outputs": [],
      "stateMutability": "payable",
      "type": "function",
      "payable": true
    },
    {
      "inputs": [],
      "name": "withdraw",
      "outputs": [],
      "stateMutability": "nonpayable",
      "type": "function"
    },
    {
      "inputs": [
        {
          "internalType": "uint256",
          "name": "newPrice",
          "type": "uint256"
        }
      ],
      "name": "setPublicPrice",
      "outputs": [],
      "stateMutability": "nonpayable",
      "type": "function"
    }
  ],
  "bytecode": "0x6080604052666a94d74f430000600b556000600c553480156200002157600080fd5b50604080518082018252600c81526b4d6574614f6269747561727960a01b602080830191909152825180840190935260028352614d4f60f01b9083015290620000716301ffc9a760e01b62000136565b81516200008690600690602085019062000195565b5080516200009c90600790602084019062000195565b50620000af6380ac58cd60e01b62000136565b620000c1635b5e139f60e01b62000136565b620000d363780e9d6360e01b62000136565b5060009050620000e262000191565b600a80546001600160a01b0319166001600160a01b038316908117909155604051919250906000907f8be0079c531659141344cd1fd0a4f28419497f9722a3daafe3b4186f6b6457e0908290a35062000268565b6001600160e01b031980821614156200016c5760405162461bcd60e51b8152600401620001639062000231565b60405180910390fd5b6001600160e01b0319166000908152602081905260409020805460ff19166001179055565b3390565b828054600181600116156101000203166002900490600052602060002090601f016020900481019282601f10620001d857805160ff191683800117855562000208565b8280016001018555821562000208579182015b8281111562000208578251825591602001919060010190620001eb565b50620002169291506200021a565b5090565b5b808211156200021657600081556001016200021b565b6020808252601c908201527f4552433136353a20696e76616c696420696e7465726661636520696400000000604082015260600190565b61214180620002786000396000f3fe6080604052600436106101665760003560e01c80636c0360eb116100d1578063a945bf801161008a578063c87b56dd11610064578063c87b56dd146103e7578063d85d3d2714610407578063e985e9c51461041a578063f2fde38b1461043a57610166565b8063a945bf8014610392578063b88d4fde146103a7578063c6275255146103c757610166565b80636c0360eb146102fe57806370a0823114610313578063715018a6146103335780638da5cb5b1461034857806395d89b411461035d578063a22cb4651461037257610166565b80632f745c59116101235780632f745c59146102545780633ccfd60b1461027457806342842e0e146102895780634f02c420146102a95780634f6ccce7146102be5780636352211e146102de57610166565b806301ffc9a71461016b57806306fdde03146101a1578063081812fc146101c3578063095ea7b3146101f057806318160ddd1461021257806323b872dd14610234575b600080fd5b34801561017757600080fd5b5061018b610186366004611916565b61045a565b6040516101989190611a61565b60405180910390f35b3480156101ad57600080fd5b506101b661047d565b6040516101989190611a6c565b3480156101cf57600080fd5b506101e36101de366004611981565b610513565b6040516101989190611a10565b3480156101fc57600080fd5b5061021061020b3660046118ec565b61055f565b005b34801561021e57600080fd5b506102276105f7565b604051610198919061204d565b34801561024057600080fd5b5061021061024f366004611809565b610608565b34801561026057600080fd5b5061022761026f3660046118ec565b610640565b34801561028057600080fd5b5061021061066b565b34801561029557600080fd5b506102106102a4366004611809565b6106db565b3480156102b557600080fd5b506102276106f6565b3480156102ca57600080fd5b506102276102d9366004611981565b6106fc565b3480156102ea57600080fd5b506101e36102f9366004611981565b610712565b34801561030a57600080fd5b506101b661073a565b34801561031f57600080fd5b5061022761032e3660046117ba565b61079b565b34801561033f57600080fd5b506102106107e4565b34801561035457600080fd5b506101e361086d565b34801561036957600080fd5b506101b661087c565b34801561037e57600080fd5b5061021061038d3660046118b1565b6108dd565b34801561039e57600080fd5b506102276109ab565b3480156103b357600080fd5b506102106103c2366004611849565b6109b1565b3480156103d357600080fd5b506102106103e2366004611981565b6109f0565b3480156103f357600080fd5b506101b6610402366004611981565b610a34565b61021061041536600461194e565b610b7a565b34801561042657600080fd5b5061018b6104353660046117d5565b610baa565b34801561044657600080fd5b506102106104553660046117ba565b610bd8565b6001600160e01b0319811660009081526020819052604090205460ff165b919050565b60068054604080516020601f60026000196101006001881615020190951694909404938401819004810282018101909252828152606093909290918301828280156105095780601f106104de57610100808354040283529160200191610509565b820191906000526020600020905b8154815290600101906020018083116104ec57829003601f168201915b5050505050905090565b600061051e82610c99565b6105435760405162461bcd60e51b815260040161053a90611df2565b60405180910390fd5b506000908152600460205260409020546001600160a01b031690565b600061056a82610712565b9050806001600160a01b0316836001600160a01b0316141561059e5760405162461bcd60e51b815260040161053a90611f57565b806001600160a01b03166105b0610ca6565b6001600160a01b031614806105cc57506105cc81610435610ca6565b6105e85760405162461bcd60e51b815260040161053a90611cd4565b6105f28383610caa565b505050565b60006106036002610d18565b905090565b610619610613610ca6565b82610d23565b6106355760405162461bcd60e51b815260040161053a90611f98565b6105f2838383610da8565b6001600160a01b03821660009081526001602052604081206106629083610eb6565b90505b92915050565b610673610ca6565b6001600160a01b031661068461086d565b6001600160a01b0316146106aa5760405162461bcd60e51b815260040161053a90611e8a565b6106b261086d565b6001600160a01b03166108fc479081150290604051600060405180830381858888f15050505050565b6105f2838383604051806020016040528060008152506109b1565b600c5481565b60008061070a600284610ec2565b509392505050565b6000610665826040518060600160405280602981526020016120e36029913960029190610ede565b60098054604080516020601f60026000196101006001881615020190951694909404938401819004810282018101909252828152606093909290918301828280156105095780601f106104de57610100808354040283529160200191610509565b60006001600160a01b0382166107c35760405162461bcd60e51b815260040161053a90611d31565b6001600160a01b038216600090815260016020526040902061066590610d18565b6107ec610ca6565b6001600160a01b03166107fd61086d565b6001600160a01b0316146108235760405162461bcd60e51b815260040161053a90611e8a565b600a546040516000916001600160a01b0316907f8be0079c531659141344cd1fd0a4f28419497f9722a3daafe3b4186f6b6457e0908390a3600a80546001600160a01b0319169055565b600a546001600160a01b031690565b60078054604080516020601f60026000196101006001881615020190951694909404938401819004810282018101909252828152606093909290918301828280156105095780601f106104de57610100808354040283529160200191610509565b6108e5610ca6565b6001600160a01b0316826001600160a01b031614156109165760405162461bcd60e51b815260040161053a90611bd4565b8060056000610923610ca6565b6001600160a01b03908116825260208083019390935260409182016000908120918716808252919093529120805460ff191692151592909217909155610967610ca6565b6001600160a01b03167f17307eab39ab6107e8899845ad3d59bd9653f200f220920489ca2b5937696c318360405161099f9190611a61565b60405180910390a35050565b600b5481565b6109c26109bc610ca6565b83610d23565b6109de5760405162461bcd60e51b815260040161053a90611f98565b6109ea84848484610ef5565b50505050565b6109f8610ca6565b6001600160a01b0316610a0961086d565b6001600160a01b031614610a2f5760405162461bcd60e51b815260040161053a90611e8a565b600b55565b6060610a3f82610c99565b610a5b5760405162461bcd60e51b815260040161053a90611f08565b60008281526008602090815260409182902080548351601f6002600019610100600186161502019093169290920491820184900484028101840190945280845260609392830182828015610af05780601f10610ac557610100808354040283529160200191610af0565b820191906000526020600020905b815481529060010190602001808311610ad357829003601f168201915b505050505090506060610b0161073a565b9050805160001415610b1557509050610478565b815115610b47578082604051602001610b2f9291906119e1565b60405160208183030381529060405292505050610478565b80610b5185610f28565b604051602001610b629291906119e1565b60405160208183030381529060405292505050919050565b34600b541115610b9c5760405162461bcd60e51b815260040161053a90611c0b565b610ba63382611003565b5050565b6001600160a01b03918216600090815260056020908152604080832093909416825291909152205460ff1690565b610be0610ca6565b6001600160a01b0316610bf161086d565b6001600160a01b031614610c175760405162461bcd60e51b815260040161053a90611e8a565b6001600160a01b038116610c3d5760405162461bcd60e51b815260040161053a90611b13565b600a546040516001600160a01b038084169216907f8be0079c531659141344cd1fd0a4f28419497f9722a3daafe3b4186f6b6457e090600090a3600a80546001600160a01b0319166001600160a01b0392909216919091179055565b6000610665600283611052565b3390565b600081815260046020526040902080546001600160a01b0319166001600160a01b0384169081179091558190610cdf82610712565b6001600160a01b03167f8c5be1e5ebec7d5bd14f71427d1e84f3dd0314c0f7b2291e5b200ac8c7c3b92560405160405180910390a45050565b60006106658261105e565b6000610d2e82610c99565b610d4a5760405162461bcd60e51b815260040161053a90611c88565b6000610d5583610712565b9050806001600160a01b0316846001600160a01b03161480610d905750836001600160a01b0316610d8584610513565b6001600160a01b0316145b80610da05750610da08185610baa565b949350505050565b826001600160a01b0316610dbb82610712565b6001600160a01b031614610de15760405162461bcd60e51b815260040161053a90611ebf565b6001600160a01b038216610e075760405162461bcd60e51b815260040161053a90611b90565b610e128383836105f2565b610e1d600082610caa565b6001600160a01b0383166000908152600160205260409020610e3f9082611062565b506001600160a01b0382166000908152600160205260409020610e62908261106e565b50610e6f6002828461107a565b5080826001600160a01b0316846001600160a01b03167fddf252ad1be2c89b69c2b068fc378daa952ba7f163c4a11628f55a4df523b3ef60405160405180910390a4505050565b60006106628383611090565b6000808080610ed186866110d5565b9097909650945050505050565b6000610eeb848484611131565b90505b9392505050565b610f00848484610da8565b610f0c84848484611190565b6109ea5760405162461bcd60e51b815260040161053a90611ac1565b606081610f4d57506040805180820190915260018152600360fc1b6020820152610478565b8160005b8115610f6557600101600a82049150610f51565b60608167ffffffffffffffff81118015610f7e57600080fd5b506040519080825280601f01601f191660200182016040528015610fa9576020820181803683370190505b50859350905060001982015b8315610ffa57600a840660300160f81b82828060019003935081518110610fd857fe5b60200101906001600160f81b031916908160001a905350600a84049350610fb5565b50949350505050565b60006001600160a01b03831661102b5760405162461bcd60e51b815260040161053a90612020565b600c54611038338261126f565b6110428184611289565b600c805460010190559392505050565b600061066283836112cd565b5490565b600061066283836112e5565b600061066283836113ab565b6000610eeb84846001600160a01b0385166113f5565b815460009082106110b35760405162461bcd60e51b815260040161053a90611a7f565b8260000182815481106110c257fe5b9060005260206000200154905092915050565b8154600090819083106110fa5760405162461bcd60e51b815260040161053a90611d7b565b600084600001848154811061110b57fe5b906000526020600020906002020190508060000154816001015492509250509250929050565b600082815260018401602052604081205482816111615760405162461bcd60e51b815260040161053a9190611a6c565b5084600001600182038154811061117457fe5b9060005260206000209060020201600101549150509392505050565b60006111a4846001600160a01b031661148c565b6111b057506001610da0565b6060611238630a85bd0160e11b6111c5610ca6565b8887876040516024016111db9493929190611a24565b604051602081830303815290604052906001600160e01b0319166020820180516001600160e01b0383818316178352505050506040518060600160405280603281526020016120b1603291396001600160a01b0388169190611492565b90506000818060200190518101906112509190611932565b6001600160e01b031916630a85bd0160e11b1492505050949350505050565b610ba68282604051806020016040528060008152506114a1565b61129282610c99565b6112ae5760405162461bcd60e51b815260040161053a90611e3e565b600082815260086020908152604090912082516105f292840190611692565b60009081526001919091016020526040902054151590565b600081815260018301602052604081205480156113a1578354600019808301919081019060009087908390811061131857fe5b906000526020600020015490508087600001848154811061133557fe5b60009182526020808320909101929092558281526001898101909252604090209084019055865487908061136557fe5b60019003818190600052602060002001600090559055866001016000878152602001908152602001600020600090556001945050505050610665565b6000915050610665565b60006113b783836112cd565b6113ed57508154600181810184556000848152602080822090930184905584548482528286019093526040902091909155610665565b506000610665565b60008281526001840160205260408120548061145a575050604080518082018252838152602080820184815286546001818101895560008981528481209551600290930290950191825591519082015586548684528188019092529290912055610eee565b8285600001600183038154811061146d57fe5b9060005260206000209060020201600101819055506000915050610eee565b3b151590565b6060610eeb84846000856114d4565b6114ab8383611595565b6114b86000848484611190565b6105f25760405162461bcd60e51b815260040161053a90611ac1565b6060824710156114f65760405162461bcd60e51b815260040161053a90611c42565b6114ff8561148c565b61151b5760405162461bcd60e51b815260040161053a90611fe9565b60006060866001600160a01b0316858760405161153891906119c5565b60006040518083038185875af1925050503d8060008114611575576040519150601f19603f3d011682016040523d82523d6000602084013e61157a565b606091505b509150915061158a828286611659565b979650505050505050565b6001600160a01b0382166115bb5760405162461bcd60e51b815260040161053a90611dbd565b6115c481610c99565b156115e15760405162461bcd60e51b815260040161053a90611b59565b6115ed600083836105f2565b6001600160a01b038216600090815260016020526040902061160f908261106e565b5061161c6002828461107a565b5060405181906001600160a01b038416906000907fddf252ad1be2c89b69c2b068fc378daa952ba7f163c4a11628f55a4df523b3ef908290a45050565b60608315611668575081610eee565b8251156116785782518084602001fd5b8160405162461bcd60e51b815260040161053a9190611a6c565b828054600181600116156101000203166002900490600052602060002090601f016020900481019282601f106116d357805160ff1916838001178555611700565b82800160010185558215611700579182015b828111156117005782518255916020019190600101906116e5565b5061170c929150611710565b5090565b5b8082111561170c5760008155600101611711565b80356001600160a01b038116811461066557600080fd5b600082601f83011261174c578081fd5b813567ffffffffffffffff80821115611763578283fd5b604051601f8301601f191681016020018281118282101715611783578485fd5b60405282815292508284830160200186101561179e57600080fd5b8260208601602083013760006020848301015250505092915050565b6000602082840312156117cb578081fd5b6106628383611725565b600080604083850312156117e7578081fd5b6117f18484611725565b91506118008460208501611725565b90509250929050565b60008060006060848603121561181d578081fd5b833561182881612082565b9250602084013561183881612082565b929592945050506040919091013590565b6000806000806080858703121561185e578081fd5b6118688686611725565b93506118778660208701611725565b925060408501359150606085013567ffffffffffffffff811115611899578182fd5b6118a58782880161173c565b91505092959194509250565b600080604083850312156118c3578182fd5b6118cd8484611725565b9150602083013580151581146118e1578182fd5b809150509250929050565b600080604083850312156118fe578182fd5b6119088484611725565b946020939093013593505050565b600060208284031215611927578081fd5b8135610eee8161209a565b600060208284031215611943578081fd5b8151610eee8161209a565b60006020828403121561195f578081fd5b813567ffffffffffffffff811115611975578182fd5b610da08482850161173c565b600060208284031215611992578081fd5b5035919050565b600081518084526119b1816020860160208601612056565b601f01601f19169290920160200192915050565b600082516119d7818460208701612056565b9190910192915050565b600083516119f3818460208801612056565b835190830190611a07818360208801612056565b01949350505050565b6001600160a01b0391909116815260200190565b6001600160a01b0385811682528416602082015260408101839052608060608201819052600090611a5790830184611999565b9695505050505050565b901515815260200190565b6000602082526106626020830184611999565b60208082526022908201527f456e756d657261626c655365743a20696e646578206f7574206f6620626f756e604082015261647360f01b606082015260800190565b60208082526032908201527f4552433732313a207472616e7366657220746f206e6f6e20455243373231526560408201527131b2b4bb32b91034b6b83632b6b2b73a32b960711b606082015260800190565b60208082526026908201527f4f776e61626c653a206e6577206f776e657220697320746865207a65726f206160408201526564647265737360d01b606082015260800190565b6020808252601c908201527f4552433732313a20746f6b656e20616c7265616479206d696e74656400000000604082015260600190565b60208082526024908201527f4552433732313a207472616e7366657220746f20746865207a65726f206164646040820152637265737360e01b606082015260800190565b60208082526019908201527f4552433732313a20617070726f766520746f2063616c6c657200000000000000604082015260600190565b6020808252601f908201527f45746865722076616c75652073656e74206973206e6f7420636f727265637400604082015260600190565b60208082526026908201527f416464726573733a20696e73756666696369656e742062616c616e636520666f6040820152651c8818d85b1b60d21b606082015260800190565b6020808252602c908201527f4552433732313a206f70657261746f7220717565727920666f72206e6f6e657860408201526b34b9ba32b73a103a37b5b2b760a11b606082015260800190565b60208082526038908201527f4552433732313a20617070726f76652063616c6c6572206973206e6f74206f7760408201527f6e6572206e6f7220617070726f76656420666f7220616c6c0000000000000000606082015260800190565b6020808252602a908201527f4552433732313a2062616c616e636520717565727920666f7220746865207a65604082015269726f206164647265737360b01b606082015260800190565b60208082526022908201527f456e756d657261626c654d61703a20696e646578206f7574206f6620626f756e604082015261647360f01b606082015260800190565b6020808252818101527f4552433732313a206d696e7420746f20746865207a65726f2061646472657373604082015260600190565b6020808252602c908201527f4552433732313a20617070726f76656420717565727920666f72206e6f6e657860408201526b34b9ba32b73a103a37b5b2b760a11b606082015260800190565b6020808252602c908201527f4552433732314d657461646174613a2055524920736574206f66206e6f6e657860408201526b34b9ba32b73a103a37b5b2b760a11b606082015260800190565b6020808252818101527f4f776e61626c653a2063616c6c6572206973206e6f7420746865206f776e6572604082015260600190565b60208082526029908201527f4552433732313a207472616e73666572206f6620746f6b656e2074686174206960408201526839903737ba1037bbb760b91b606082015260800190565b6020808252602f908201527f4552433732314d657461646174613a2055524920717565727920666f72206e6f60408201526e3732bc34b9ba32b73a103a37b5b2b760891b606082015260800190565b60208082526021908201527f4552433732313a20617070726f76616c20746f2063757272656e74206f776e656040820152603960f91b606082015260800190565b60208082526031908201527f4552433732313a207472616e736665722063616c6c6572206973206e6f74206f6040820152701ddb995c881b9bdc88185c1c1c9bdd9959607a1b606082015260800190565b6020808252601d908201527f416464726573733a2063616c6c20746f206e6f6e2d636f6e7472616374000000604082015260600190565b60208082526013908201527221b0b73737ba1036b4b73a103a3790183c181760691b604082015260600190565b90815260200190565b60005b83811015612071578181015183820152602001612059565b838111156109ea5750506000910152565b6001600160a01b038116811461209757600080fd5b50565b6001600160e01b03198116811461209757600080fdfe4552433732313a207472616e7366657220746f206e6f6e20455243373231526563656976657220696d706c656d656e7465724552433732313a206f776e657220717565727920666f72206e6f6e6578697374656e7420746f6b656ea26469706673582212200adf6822413f98d5231712194c20ab3b300b57dbdc1fb356a71cb671cc2520fd64736f6c634300060c0033",
  "immutableReferences": {},
  "source": "// contracts/SushiCharacter.sol\n// SPDX-License-Identifier: MIT\npragma solidity 0.6.12;\npragma experimental ABIEncoderV2;\n\nimport \"@openzeppelin/contracts/token/ERC721/ERC721.sol\";\nimport \"@openzeppelin/contracts/access/Ownable.sol\";\n\ncontract MetaObituary is ERC721, Ownable\n{\n    using SafeMath for uint256;\n    using Strings for uint256;\n    using Strings for uint16;\n\n    uint256 public publicPrice = 30000000000000000; // 0.03 ETH\n    uint256 public minted = 0;                      // minted of nft\n\n    modifier validNFToken(uint256 _tokenId) {\n        require(_exists(_tokenId), \"Invalid token.\");\n        _;\n    }\n\n    constructor () public ERC721(\"MetaObituary\", \"MO\") {}\n\n    // Public sale minting\n    function mint(string memory tokenURI) external payable {\n        require(publicPrice <= msg.value, \"Ether value sent is not correct\");\n        mintTo(msg.sender, tokenURI);\n    }\n\n    // mint with tokenURI\n    function mintTo(address _to, string memory tokenURI) internal returns (uint) {\n        require(_to != address(0), \"Cannot mint to 0x0.\");\n        uint id = minted;\n        _safeMint(msg.sender, id);\n        _setTokenURI(id, tokenURI);\n        minted = minted + 1;\n        return id;\n    }\n\n    function withdraw() external onlyOwner {\n        payable(owner()).send(address(this).balance);\n    }\n\n    function setPublicPrice(uint256 newPrice) external onlyOwner {\n        publicPrice = newPrice;\n    }\n\n}",
  "sourcePath": "/Users/william/project/github/LootMeebits/contracts/MetaObituary.sol",
  "compiler": {
    "name": "solc",
    "version": "0.6.12+commit.27d51765.Linux.g++"
  },
  "schemaVersion": "3.4.4",
  "updatedAt": "2022-06-26T09:14:10.569Z",
  "networkType": "ethereum",
  "devdoc": {
    "kind": "dev",
    "methods": {
      "approve(address,uint256)": {
        "details": "See {IERC721-approve}."
      },
      "balanceOf(address)": {
        "details": "See {IERC721-balanceOf}."
      },
      "baseURI()": {
        "details": "Returns the base URI set via {_setBaseURI}. This will be automatically added as a prefix in {tokenURI} to each token's URI, or to the token ID if no specific URI is set for that token ID."
      },
      "getApproved(uint256)": {
        "details": "See {IERC721-getApproved}."
      },
      "isApprovedForAll(address,address)": {
        "details": "See {IERC721-isApprovedForAll}."
      },
      "name()": {
        "details": "See {IERC721Metadata-name}."
      },
      "owner()": {
        "details": "Returns the address of the current owner."
      },
      "ownerOf(uint256)": {
        "details": "See {IERC721-ownerOf}."
      },
      "renounceOwnership()": {
        "details": "Leaves the contract without owner. It will not be possible to call `onlyOwner` functions anymore. Can only be called by the current owner. NOTE: Renouncing ownership will leave the contract without an owner, thereby removing any functionality that is only available to the owner."
      },
      "safeTransferFrom(address,address,uint256)": {
        "details": "See {IERC721-safeTransferFrom}."
      },
      "safeTransferFrom(address,address,uint256,bytes)": {
        "details": "See {IERC721-safeTransferFrom}."
      },
      "setApprovalForAll(address,bool)": {
        "details": "See {IERC721-setApprovalForAll}."
      },
      "supportsInterface(bytes4)": {
        "details": "See {IERC165-supportsInterface}. Time complexity O(1), guaranteed to always use less than 30 000 gas."
      },
      "symbol()": {
        "details": "See {IERC721Metadata-symbol}."
      },
      "tokenByIndex(uint256)": {
        "details": "See {IERC721Enumerable-tokenByIndex}."
      },
      "tokenOfOwnerByIndex(address,uint256)": {
        "details": "See {IERC721Enumerable-tokenOfOwnerByIndex}."
      },
      "tokenURI(uint256)": {
        "details": "See {IERC721Metadata-tokenURI}."
      },
      "totalSupply()": {
        "details": "See {IERC721Enumerable-totalSupply}."
      },
      "transferFrom(address,address,uint256)": {
        "details": "See {IERC721-transferFrom}."
      },
      "transferOwnership(address)": {
        "details": "Transfers ownership of the contract to a new account (`newOwner`). Can only be called by the current owner."
      }
    },
    "version": 1
  },
  "userdoc": {
    "kind": "user",
    "methods": {},
    "version": 1
  }
}